{
  "transactions": [
    {
      "hash": "0x630946997913fce5f0f790f7350c087f1f0b07a58b5ca63795cb98361993297e",
      "transactionType": "CREATE",
      "contractName": "SimpleTokenDeploy",
      "contractAddress": "0x3e2a014857a4b1cf4a7e86ca5e422aec5602612a",
      "function": null,
      "arguments": null,
      "transaction": {
        "from": "0xf4c0bdbb681a61aa0b123e82c04b0d692f53d58e",
        "gas": "0xdace6",
        "value": "0x0",
        "input": "0x608060405234610180576100135f54610184565b601f8111610139575b507f54657374204352454720546f6b656e000000000000000000000000000000001e5f556001805461004d90610184565b601f81116100f2575b600a64744352454760d81b016001556002805460ff19166012179055600480546001600160a01b03191633179055600354610090906101bc565b600355335f52600660205260405f206100a981546101bc565b90556040516a084595161401484a00000081525f7fddf252ad1be2c89b69c2b068fc378daa952ba7f163c4a11628f55a4df523b3ef60203393a36040516108ee90816101e98239f35b60015f52601f0160051c7fb10e2d527612073b26eecdfd717e6a320cf44b4afac2b0732d9fcbe2b7fa0cf6908101905b81811061012f5750610056565b5f81558201610122565b5f8052601f0160051c7f290decd9548b62a8d60345a988386fc84ba6bc95484008f6362f93160ef3e563908101905b818110610175575061001c565b5f8155600101610168565b5f80fd5b90600182811c921680156101b2575b602083101461019e57565b634e487b7160e01b5f52602260045260245ffd5b91607f1691610193565b906a084595161401484a00000082018092116101d457565b634e487b7160e01b5f52601160045260245ffdfe6080604090808252600480361015610015575f80fd5b5f3560e01c91826306fdde03146106a157508163095ea7b31461063357816318160ddd1461061557816323b872dd146104f55781632db1154414610477578163313ce5671461045657816340c10f19146103cc57816370a08231146103955781638da5cb5b1461036e57816395d89b411461024c578163a9059cbb146101ae578163d8b31c771461012e57508063dd62ed3e146100e55763de5f72fd146100ba575f80fd5b346100e1575f3660031901126100e15760055490516001600160a01b039091168152602090f35b5f80fd5b50346100e157806003193601126100e1576020906101016107bd565b6101096107d3565b9060018060a01b038091165f5260078452825f2091165f528252805f20549051908152f35b9050346100e15760203660031901126100e1576101496107bd565b81546001600160a01b0393919291908416330361017f575050166bffffffffffffffffffffffff60a01b60055416176005555f80f35b906020606492519162461bcd60e51b835282015260096024820152682737ba1037bbb732b960b91b6044820152fd5b82346100e157806003193601126100e1576020906101ca6107bd565b60243590335f52600684526101e482845f205410156107e9565b335f5260068452825f206101f983825461082c565b905560018060a01b031690815f5260068452825f2061021982825461084d565b905582519081527fddf252ad1be2c89b69c2b068fc378daa952ba7f163c4a11628f55a4df523b3ef843392a35160018152f35b82346100e1575f3660031901126100e1578051905f60018054908160011c9060018316928315610364575b60209384841081146103515783885290811561033557506001146102df575b505050829003601f01601f191682019267ffffffffffffffff8411838510176102cc57508291826102c8925282610776565b0390f35b604190634e487b7160e01b5f525260245ffd5b60015f908152929350837fb10e2d527612073b26eecdfd717e6a320cf44b4afac2b0732d9fcbe2b7fa0cf65b8385106103215750505050830101848080610296565b80548886018301529301928490820161030b565b60ff1916878501525050151560051b8401019050848080610296565b602289634e487b7160e01b5f525260245ffd5b91607f1691610277565b82346100e1575f3660031901126100e157905490516001600160a01b039091168152602090f35b82346100e15760203660031901126100e1576020906001600160a01b036103ba6107bd565b165f5260068252805f20549051908152f35b9050346100e157816003193601126100e1576103e66107bd565b8154909290336001600160a01b0391821614908115610448575b5015610414576104126024358461085a565b005b906020606492519162461bcd60e51b8352820152600e60248201526d139bdd08185d5d1a1bdc9a5e995960921b6044820152fd5b90506005541633145f610400565b82346100e1575f3660031901126100e15760209060ff600254169051908152f35b9050346100e15760203660031901126100e157803591683635c9adc5dea0000083116104a757610412833361085a565b906020608492519162461bcd60e51b8352820152602260248201527f416d6f756e7420746f6f206869676820666f7220746573746e65742066617563604482015261195d60f21b6064820152fd5b82346100e15760603660031901126100e15761050f6107bd565b6105176107d3565b6044359160018060a01b0380911691825f526020956006875261053f85875f205410156107e9565b835f5260078752855f20335f52875284865f2054106105d957507fddf252ad1be2c89b69c2b068fc378daa952ba7f163c4a11628f55a4df523b3ef918691845f5260078352865f20335f528352865f2061059a87825461082c565b9055845f5260068352865f206105b187825461082c565b90551693845f5260068252855f206105ca82825461084d565b90558551908152a35160018152f35b855162461bcd60e51b81529081018790526016602482015275496e73756666696369656e7420616c6c6f77616e636560501b6044820152606490fd5b82346100e1575f3660031901126100e1576020906003549051908152f35b82346100e157806003193601126100e15760209061064f6107bd565b602435335f5260078452825f209160018060a01b031691825f52845280835f205582519081527f8c5be1e5ebec7d5bd14f71427d1e84f3dd0314c0f7b2291e5b200ac8c7c3b925843392a35160018152f35b83346100e1575f3660031901126100e1575f805460018160011c906001831692831561076c575b602093848410811461035157838852908115610335575060011461071857505050829003601f01601f191682019267ffffffffffffffff8411838510176102cc57508291826102c8925282610776565b5f808052929350837f290decd9548b62a8d60345a988386fc84ba6bc95484008f6362f93160ef3e5635b8385106107585750505050830101848080610296565b805488860183015293019284908201610742565b91607f16916106c8565b602080825282518183018190529093925f5b8281106107a957505060409293505f838284010152601f8019910116010190565b818101860151848201604001528501610788565b600435906001600160a01b03821682036100e157565b602435906001600160a01b03821682036100e157565b156107f057565b60405162461bcd60e51b8152602060048201526014602482015273496e73756666696369656e742062616c616e636560601b6044820152606490fd5b9190820391821161083957565b634e487b7160e01b5f52601160045260245ffd5b9190820180921161083957565b7fddf252ad1be2c89b69c2b068fc378daa952ba7f163c4a11628f55a4df523b3ef60205f9261088b8560035461084d565b60035560018060a01b03169384845260068252604084206108ad82825461084d565b9055604051908152a356fea2646970667358221220020d0c32d4fa1fbb9527fe61ab14967b30ca3068ff2b430c0cc79e2340421e6264736f6c63430008180033",
        "nonce": "0xe",
        "chainId": "0xaa36a7"
      },
      "additionalContracts": [],
      "isFixedGasLimit": false
    },
    {
      "hash": "0xc7e8f9a8628f97b92c64871e1512bc594858541cb56706b698e304f541a5c43b",
      "transactionType": "CREATE",
      "contractName": "TestStakingDeploy",
      "contractAddress": "0x605c1efb417bfa913a647f7cffa7724a1dc58df3",
      "function": null,
      "arguments": [
        "0x3e2A014857a4b1cf4A7E86cA5E422aeC5602612a"
      ],
      "transaction": {
        "from": "0xf4c0bdbb681a61aa0b123e82c04b0d692f53d58e",
        "gas": "0x91a4e",
        "value": "0x0",
        "input": "0x60803461009157601f61065938819003918201601f19168301916001600160401b038311848410176100955780849260209460405283398101031261009157516001600160a01b038116908190036100915766038d7ea4c6800060025567016345785d8a000060035560018060a01b031990815f5416175f55339060015416176001556040516105af90816100aa8239f35b5f80fd5b634e487b7160e01b5f52604160045260245ffdfe608060409080825260049081361015610016575f80fd5b5f3560e01c908163017ddd35146104b4575080630a4d85cd1461045f5780631f18e55614610365578063346648461461032b57806341859ac8146102e957806343f337ab146101ea578063570ca735146101c257806364475caf146101a45780639384b4041461017d578063e9d4ffce14610143578063fa52c7d8146100e95763facd743b146100a4575f80fd5b346100e55760203660031901126100e557356001600160a01b03811691908290036100e5576020915f526005825260ff6001825f2001541690519015158152f35b5f80fd5b50346100e55760203660031901126100e557356001600160a01b038116908190036100e5575f526005602052805f2061013f60ff6001835493015416925192839283909291602090604083019483521515910152565b0390f35b5090346100e55760203660031901126100e55781356001600160a01b03811692908390036100e5576020925f528252805f20549051908152f35b82346100e5575f3660031901126100e5575f5490516001600160a01b039091168152602090f35b82346100e5575f3660031901126100e5576020906002549051908152f35b82346100e5575f3660031901126100e55760015490516001600160a01b039091168152602090f35b5090346100e5576020806003193601126100e55782359161020f6002548410156104ce565b5f805482516323b872dd60e01b81523387820190815230602082015260408101879052909692859288928390036060019183916001600160a01b03165af19485156102df577f524612ff3160cfa7208ffd41aa06edf0fcab234ad3b1c4ee5b5385cded87436e94956102b2575b50335f52808352815f20610291868254610558565b9055335f5282526001815f2001600160ff19825416179055519283523392a2005b6102d190843d86116102d8575b6102c9818361050a565b810190610540565b505f61027c565b503d6102bf565b82513d5f823e3d90fd5b5090346100e55760203660031901126100e55781356001600160a01b03811692908390036100e5576020925f52825260ff6001825f2001541690519015158152f35b50346100e55760203660031901126100e557356001600160a01b03811691908290036100e5576020915f5260058252805f20549051908152f35b50346100e5576020806003193601126100e5576103cc92818335809461038f6003548310156104ce565b5f805485516323b872dd60e01b8152339381019384523060208501526040840194909452929788936001600160a01b031692849291839160600190565b03925af1938415610455577fbdf8f4c0feff7f456c5c1fd1c42716baa7ee66801a0b860872009ac945403fa09394610438575b50335f5260058252805f20610415858254610558565b9055335f52600582526001815f2001600160ff19825416179055519283523392a2005b61044e90833d85116102d8576102c9818361050a565b505f6103ff565b50513d5f823e3d90fd5b50346100e55760203660031901126100e55780356001600160a01b038116908190036100e5575f52602052805f2061013f60ff6001835493015416925192839283909291602090604083019483521515910152565b346100e5575f3660031901126100e5576020906003548152f35b156104d557565b60405162461bcd60e51b815260206004820152600d60248201526c42656c6f77206d696e696d756d60981b6044820152606490fd5b90601f8019910116810190811067ffffffffffffffff82111761052c57604052565b634e487b7160e01b5f52604160045260245ffd5b908160209103126100e5575180151581036100e55790565b9190820180921161056557565b634e487b7160e01b5f52601160045260245ffdfea26469706673582212203e27b4589a713cd1bd8a8c5a8ed5834f0a49c1c73832c699711adaaa2bd68a1c64736f6c634300081800330000000000000000000000003e2a014857a4b1cf4a7e86ca5e422aec5602612a",
        "nonce": "0xf",
        "chainId": "0xaa36a7"
      },
      "additionalContracts": [],
      "isFixedGasLimit": false
    },
    {
      "hash": "0x84d603bb79ab9f706a2dd5fc2b24637c6c66730e14e7e1417ffc57495ce90e57",
      "transactionType": "CALL",
      "contractName": "SimpleTokenDeploy",
      "contractAddress": "0x3e2a014857a4b1cf4a7e86ca5e422aec5602612a",
      "function": "setFaucet(address)",
      "arguments": [
        "0x70997970C51812dc3A010C7d01b50e0d17dc79C8"
      ],
      "transaction": {
        "from": "0xf4c0bdbb681a61aa0b123e82c04b0d692f53d58e",
        "to": "0x3e2a014857a4b1cf4a7e86ca5e422aec5602612a",
        "gas": "0xf92b",
        "value": "0x0",
        "input": "0xd8b31c7700000000000000000000000070997970c51812dc3a010c7d01b50e0d17dc79c8",
        "nonce": "0x10",
        "chainId": "0xaa36a7"
      },
      "additionalContracts": [],
      "isFixedGasLimit": false
    },
    {
      "hash": "0x6e3b4482769dcd969d1519c401f8d5ab4ed8c8f3c134676f444ad44461d5a27b",
      "transactionType": "CALL",
      "contractName": "SimpleTokenDeploy",
      "contractAddress": "0x3e2a014857a4b1cf4a7e86ca5e422aec5602612a",
      "function": "transfer(address,uint256)",
      "arguments": [
        "0x70997970C51812dc3A010C7d01b50e0d17dc79C8",
        "1000000000000000000000000"
      ],
      "transaction": {
        "from": "0xf4c0bdbb681a61aa0b123e82c04b0d692f53d58e",
        "to": "0x3e2a014857a4b1cf4a7e86ca5e422aec5602612a",
        "gas": "0x115cd",
        "value": "0x0",
        "input": "0xa9059cbb00000000000000000000000070997970c51812dc3a010c7d01b50e0d17dc79c800000000000000000000000000000000000000000000d3c21bcecceda1000000",
        "nonce": "0x11",
        "chainId": "0xaa36a7"
      },
      "additionalContracts": [],
      "isFixedGasLimit": false
    }
  ],
  "receipts": [
    {
      "status": "0x1",
      "cumulativeGasUsed": "0x13f86ac",
      "logs": [
        {
          "address": "0x3e2a014857a4b1cf4a7e86ca5e422aec5602612a",
          "topics": [
            "0xddf252ad1be2c89b69c2b068fc378daa952ba7f163c4a11628f55a4df523b3ef",
            "0x0000000000000000000000000000000000000000000000000000000000000000",
            "0x000000000000000000000000f4c0bdbb681a61aa0b123e82c04b0d692f53d58e"
          ],
          "data": "0x000000000000000000000000000000000000000000084595161401484a000000",
          "blockHash": "0xa867e72852e11407c906446f4641de0ccf4f6156bc72a36170798245527e8b68",
          "blockNumber": "0xa514de",
          "blockTimestamp": "0x69fec088",
          "transactionHash": "0x630946997913fce5f0f790f7350c087f1f0b07a58b5ca63795cb98361993297e",
          "transactionIndex": "0x7b",
          "logIndex": "0x292",
          "removed": false
        }
      ],
      "logsBloom": "0x00000000000000000000000000000000000000000002002000000000000000000000000000000000000000000400000000000000000000000000000000000000000000000000000000000008000000000000000000000000000000000000000000000000020000000000000000000800000000000000000000000010000000000000000000000000000000000000000000000000000000000000400000000001000000000000000000000000000000000000000000000000020000000000000000000002000000000000000000000000000000000000000000000000000020000000000000000000000000000000000000000000000000000000000000000000",
      "type": "0x2",
      "transactionHash": "0x630946997913fce5f0f790f7350c087f1f0b07a58b5ca63795cb98361993297e",
      "transactionIndex": "0x7b",
      "blockHash": "0xa867e72852e11407c906446f4641de0ccf4f6156bc72a36170798245527e8b68",
      "blockNumber": "0xa514de",
      "gasUsed": "0xa8500",
      "effectiveGasPrice": "0xf4309",
      "from": "0xf4c0bdbb681a61aa0b123e82c04b0d692f53d58e",
      "to": null,
      "contractAddress": "0x3e2a014857a4b1cf4a7e86ca5e422aec5602612a"
    },
    {
      "status": "0x1",
      "cumulativeGasUsed": "0xc67b45",
      "logs": [],
      "logsBloom": "0x00000000000000000000000000000000000000000000000000000000000000000000000000000000000000000000000000000000000000000000000000000000000000000000000000000000000000000000000000000000000000000000000000000000000000000000000000000000000000000000000000000000000000000000000000000000000000000000000000000000000000000000000000000000000000000000000000000000000000000000000000000000000000000000000000000000000000000000000000000000000000000000000000000000000000000000000000000000000000000000000000000000000000000000000000000000",
      "type": "0x2",
      "transactionHash": "0xc7e8f9a8628f97b92c64871e1512bc594858541cb56706b698e304f541a5c43b",
      "transactionIndex": "0x63",
      "blockHash": "0xa12d26940c08baa49818c9a4c45a41ef545299fdaff54222a8552108f2f98422",
      "blockNumber": "0xa514df",
      "gasUsed": "0x7008b",
      "effectiveGasPrice": "0xf430e",
      "from": "0xf4c0bdbb681a61aa0b123e82c04b0d692f53d58e",
      "to": null,
      "contractAddress": "0x605c1efb417bfa913a647f7cffa7724a1dc58df3"
    },
    {
      "status": "0x1",
      "cumulativeGasUsed": "0x17a8feb",
      "logs": [],
      "logsBloom": "0x00000000000000000000000000000000000000000000000000000000000000000000000000000000000000000000000000000000000000000000000000000000000000000000000000000000000000000000000000000000000000000000000000000000000000000000000000000000000000000000000000000000000000000000000000000000000000000000000000000000000000000000000000000000000000000000000000000000000000000000000000000000000000000000000000000000000000000000000000000000000000000000000000000000000000000000000000000000000000000000000000000000000000000000000000000000",
      "type": "0x2",
      "transactionHash": "0x84d603bb79ab9f706a2dd5fc2b24637c6c66730e14e7e1417ffc57495ce90e57",
      "transactionIndex": "0xb3",
      "blockHash": "0x52046bec3d1d40a29e707b3dcaf7f4ac92273270afcca0e83e79a822568f64ca",
      "blockNumber": "0xa514e0",
      "gasUsed": "0xb465",
      "effectiveGasPrice": "0xf4310",
      "from": "0xf4c0bdbb681a61aa0b123e82c04b0d692f53d58e",
      "to": "0x3e2a014857a4b1cf4a7e86ca5e422aec5602612a",
      "contractAddress": null
    },
    {
      "status": "0x1",
      "cumulativeGasUsed": "0xeac837",
      "logs": [
        {
          "address": "0x3e2a014857a4b1cf4a7e86ca5e422aec5602612a",
          "topics": [
            "0xddf252ad1be2c89b69c2b068fc378daa952ba7f163c4a11628f55a4df523b3ef",
            "0x000000000000000000000000f4c0bdbb681a61aa0b123e82c04b0d692f53d58e",
            "0x00000000000000000000000070997970c51812dc3a010c7d01b50e0d17dc79c8"
          ],
          "data": "0x00000000000000000000000000000000000000000000d3c21bcecceda1000000",
          "blockHash": "0x42e692f0299c19f6b7b9f5740595b3644d07bbb8a29dcdc39957b3823d9741a2",
          "blockNumber": "0xa514e1",
          "blockTimestamp": "0x69fec0c4",
          "transactionHash": "0x6e3b4482769dcd969d1519c401f8d5ab4ed8c8f3c134676f444ad44461d5a27b",
          "transactionIndex": "0x4e",
          "logIndex": "0x107",
          "removed": false
        }
      ],
      "logsBloom": "0x00000000000000000002000000000000000000000002002000000000000000000000000000000000000000000400000000000000000000000000000000000000000000000000000000000008000000000000000000000000000000000000000000000800000000000000000000000000000000000000000000000010000000000000000000000000000000000000000000000000000000000000400000000001000000000000000000000000000000000000000000000000020000000000000000000002000000000000000000000000000000000000000000000000000000000000000000000000000000000000000001000000000000000000000000000000",
      "type": "0x2",
      "transactionHash": "0x6e3b4482769dcd969d1519c401f8d5ab4ed8c8f3c134676f444ad44461d5a27b",
      "transactionIndex": "0x4e",
      "blockHash": "0x42e692f0299c19f6b7b9f5740595b3644d07bbb8a29dcdc39957b3823d9741a2",
      "blockNumber": "0xa514e1",
      "gasUsed": "0xc920",
      "effectiveGasPrice": "0xf4329",
      "from": "0xf4c0bdbb681a61aa0b123e82c04b0d692f53d58e",
      "to": "0x3e2a014857a4b1cf4a7e86ca5e422aec5602612a",
      "contractAddress": null
    }
  ],
  "libraries": [],
  "pending": [],
  "returns": {},
  "timestamp": 1778303173,
  "chain": 11155111,
  "commit": null
}